{
  "contractName": "Game",
  "abi": [
    {
      "constant": false,
      "inputs": [
        {
          "internalType": "string",
          "name": "val",
          "type": "string"
        }
      ],
      "name": "playGame",
      "outputs": [
        {
          "internalType": "string",
          "name": "",
          "type": "string"
        }
      ],
      "payable": false,
      "stateMutability": "nonpayable",
      "type": "function"
    },
    {
      "constant": false,
      "inputs": [],
      "name": "random",
      "outputs": [
        {
          "internalType": "uint256",
          "name": "",
          "type": "uint256"
        }
      ],
      "payable": false,
      "stateMutability": "nonpayable",
      "type": "function"
    }
  ],
  "bytecode": "0x60806040526040518060400160405280600381526020017f62756100000000000000000000000000000000000000000000000000000000008152506000908051906020019061004f9291906100fa565b506040518060400160405280600381526020017f6b656f00000000000000000000000000000000000000000000000000000000008152506001908051906020019061009b9291906100fa565b506040518060400160405280600381526020017f62616f0000000000000000000000000000000000000000000000000000000000815250600290805190602001906100e79291906100fa565b503480156100f457600080fd5b5061019f565b828054600181600116156101000203166002900490600052602060002090601f016020900481019282601f1061013b57805160ff1916838001178555610169565b82800160010185558215610169579182015b8281111561016857825182559160200191906001019061014d565b5b509050610176919061017a565b5090565b61019c91905b80821115610198576000816000905550600101610180565b5090565b90565b6103f3806101ae6000396000f3fe608060405234801561001057600080fd5b50600436106100365760003560e01c80635ec01e4d1461003b578063ef7e04c114610059575b600080fd5b61004361018d565b6040518082815260200191505060405180910390f35b6101126004803603602081101561006f57600080fd5b810190808035906020019064010000000081111561008c57600080fd5b82018360208201111561009e57600080fd5b803590602001918460018302840111640100000000831117156100c057600080fd5b91908080601f016020809104026020016040519081016040528093929190818152602001838380828437600081840152601f19601f8201169050808301925050505050505091929192905050506101d3565b6040518080602001828103825283818151815260200191508051906020019080838360005b83811015610152578082015181840152602081019050610137565b50505050905090810190601f16801561017f5780820380516001836020036101000a031916815260200191505b509250505060405180910390f35b600060016003444260405160200180838152602001828152602001925050506040516020818303038152906040528051906020012060001c816101cc57fe5b0601905090565b6060600060405180828054600181600116156101000203166002900480156102325780601f10610210576101008083540402835291820191610232565b820191906000526020600020905b81548152906001019060200180831161021e575b5050915050604051809103902082805190602001201415610277576001600460006101000a81548163ffffffff021916908360030b63ffffffff1602179055506103b9565b600160405180828054600181600116156101000203166002900480156102d45780601f106102b25761010080835404028352918201916102d4565b820191906000526020600020905b8154815290600101906020018083116102c0575b5050915050604051809103902082805190602001201415610319576002600460006101000a81548163ffffffff021916908360030b63ffffffff1602179055506103b8565b600260405180828054600181600116156101000203166002900480156103765780601f10610354576101008083540402835291820191610376565b820191906000526020600020905b815481529060010190602001808311610362575b50509150506040518091039020828051906020012014156103b7576003600460006101000a81548163ffffffff021916908360030b63ffffffff1602179055505b5b5b91905056fea265627a7a723158209736b6dfd7d7ae4c708839709f14bd001d48ce2151991353ca5b7d8fe6ce6bd364736f6c63430005100032",
  "source": "// SPDX-License-Identifier: MIT\n// compiler version must be greater than or equal to 0.8.10 and less than 0.9.0\npragma solidity <=0.8.11;\n\ncontract Game {\n    string private Bua = 'bua';\n    string private Keo = 'keo';\n    string private Bao = 'bao';\n    string private temp;\n    int32 private result;\n    string private expected;\n    // Add this function:\n    function playGame(string memory val) public returns(string memory) {\n        // (temp) = random();\n        if (keccak256(bytes(val)) == keccak256(bytes(Bua))) {\n            result = 1;\n        } else if (keccak256(bytes(val)) == keccak256(bytes(Keo))) {\n            result = 2;\n        } else if (keccak256(bytes(val)) == keccak256(bytes(Bao))) {\n            result = 3;\n        }\n\n        // if(keccak256(bytes(temp)) == 1))\n        \n    }\n    function random() public returns(uint){\n        return uint(keccak256(abi.encodePacked(block.difficulty, block.timestamp))) % 3 + 1;\n    }\n}",
  "sourcePath": "/Users/dinovativemobile/Documents/Solidity-tutorial/Truffle/contracts/Game.sol",
  "compiler": {
    "name": "solc",
    "version": "0.5.16+commit.9c3226ce.Emscripten.clang"
  },
  "schemaVersion": "3.4.4",
  "updatedAt": "2022-01-14T10:58:24.721Z",
  "devdoc": {
    "methods": {}
  },
  "userdoc": {
    "methods": {}
  }
}